:020000040800F2
:10000000C0080020890100087D260008592000084A
:100010006D240008F3020008952C00080000000081
:100020000000000000000000000000008126000821
:1000300037030008000000007F2600088326000820
:10004000A3010008A3010008A3010008A301000800
:10005000A3010008A3010008A3010008A3010008F0
:10006000A3010008A3010008A3010008A3010008E0
:10007000A3010008A3010008F5020008010300081D
:10008000A3010008A3010008A3010008A3010008C0
:10009000A3010008A3010008A3010008A3010008B0
:1000A000A3010008A3010008A3010008A3010008A0
:1000B000A3010008A3010008A3010008A301000890
:1000C000A3010008A3010008A3010008A301000880
:1000D000A3010008892C0008A3010008A30100085F
:1000E000A3010008A3010008A301000800F002F822
:1000F00000F03AF80AA090E8000C82448344AAF188
:100100000107DA4501D100F02FF8AFF2090EBAE885
:100110000F0013F0010F18BFFB1A43F0010318473B
:10012000442D0000642D0000103A24BF78C878C127
:10013000FAD8520724BF30C830C144BF04680C60ED
:10014000704700000023002400250026103A28BF35
:1001500078C1FBD8520728BF30C148BF0B60704739
:100160001FB51FBD10B510BD00F08AF81146FFF78E
:10017000F7FF02F0FDFD00F0A8F803B4FFF7F2FF6F
:1001800003BC00F0AFF80000094880470948004769
:10019000FEE7FEE7FEE7FEE7FEE7FEE7FEE7FEE737
:1001A000FEE7FEE704480549054A064B7047000094
:1001B000DF260008ED000008C0020020C008002073
:1001C000C0040020C004002010B5203AC0F00B800D
:1001D000B1E81850203AA0E81850B1E81850A0E84B
:1001E0001850BFF4F5AF5FEA027C24BFB1E81850A5
:1001F000A0E8185044BF18C918C0BDE810405FEA15
:10020000827C24BF51F8043B40F8043B08BF704790
:10021000D20728BF31F8023B48BF11F8012B28BF95
:1002200020F8023B48BF00F8012B70474FF0000256
:1002300000B5134694469646203922BFA0E80C50DC
:10024000A0E80C50B1F12001BFF4F7AF090728BFB7
:10025000A0E80C5048BF0CC05DF804EB890028BF33
:1002600040F8042B08BF704748BF20F8022B11F05C
:10027000804F18BF00F8012B7047704770477047D8
:10028000754600F02BF8AE4605006946534620F04F
:100290000700854618B020B5FFF784FFBDE8204071
:1002A0004FF000064FF000074FF000084FF0000B32
:1002B00021F00701AC46ACE8C009ACE8C009ACE8E5
:1002C000C009ACE8C0098D46704710B50446AFF3CD
:1002D00000802046BDE81040FFF74FBF0048704740
:1002E0005C02002001491820ABBEFEE72600020098
:1002F0007047FEE7014800F00BBD00001802002027
:10030000014800F005BD0000D401002030B590F890
:1003100040500124AC40C56B6C6004686360436866
:10032000102B036803D099600068C26030BD9A60EA
:100330000068C16030BD704772B6FEE7884200DADF
:100340000846904200DA1046984200DA1846704794
:100350002DE9F04FA5B082464FF001080326FE4C70
:100360004FF00409FCE33D22FC4912A8FFF72CFFE3
:10037000FA4D15F83D0F8DF8850068788DF88600E8
:10038000A8788DF88700E8788DF8880028798DF8AE
:10039000890068798DF88A00A8798DF88B00E87952
:1003A0008DF88C00287A8DF88D00687A8DF88E0093
:1003B0004FF0020B6B21CDF844B00E96CDE90FB192
:1003C000382216A96846FFF7FFFE12AF97E80F0024
:1003D00002F04EF83D22E14912A8FFF7F5FE287819
:1003E0008DF8850068788DF88600A8788DF88700EC
:1003F000E8788DF8880028798DF8890068798DF87B
:100400008A00A8798DF88B00E8798DF88C00287A1D
:100410008DF88D00687A8DF88E0050200E96CDE90B
:100420000F60382216A968461196FFF7CDFE97E8AF
:100430000F0002F01DF83D22C74912A8FFF7C4FEC5
:1004400014F83D0F8DF8850060788DF88600A0784F
:100450008DF88700E0788DF8880020798DF8890084
:1004600060798DF88A00A0798DF88B00E0798DF89D
:100470008C00207A8DF88D00607A8DF88E0001272F
:100480006721CDF83890CDE90F71382216A968465A
:100490001197FFF799FE0DF1480C9CE80F0001F051
:1004A000E7FF3D22AD4912A8FFF78EFE28788DF8B0
:1004B000850068788DF88600A8788DF88700E87840
:1004C0008DF8880028798DF8890068798DF88A0080
:1004D000A8798DF88B00E8798DF88C00287A8DF852
:1004E0008D00687A8DF88E00022175200E9611918C
:1004F000CDE90F10382216A96846FFF765FE0DF109
:10050000480C9CE80F0001F0B3FF3D22934912A86C
:10051000FFF75AFE28788DF8850068788DF88600F8
:10052000A8788DF88700E8788DF8880028798DF80C
:10053000890068798DF88A00A8798DF88B00E879B0
:100540008DF88C00287A8DF88D00687A8DF88E00F1
:100550005A200E96CDE90F60382216A968461196EA
:10056000FFF732FE12AD95E80F0001F081FF3D224A
:100570007B4912A8FFF728FE794D15F83D0F8DF83D
:100580008500774890F83E008DF88600744890F812
:100590003F008DF88700724890F840008DF8880081
:1005A0006F4890F841008DF889006D4890F842003E
:1005B0008DF88A006A4890F843008DF88B006848EF
:1005C00090F844008DF88C00654890F845008DF84F
:1005D0008D00634890F846008DF88E0002216F2050
:1005E000CDE90E16CDE91001382216A96846FFF7AD
:1005F000EBFD0DF1480C9CE80F0001F039FF3D22A6
:10060000574912A8FFF7E0FD554890F83D008DF8D6
:100610008500534890F83E008DF88600504890F8C9
:100620003F008DF887004E4890F840008DF8880014
:100630004B4890F841008DF88900494890F84200F5
:100640008DF88A00464890F843008DF88B004448A6
:1006500090F844008DF88C00414890F845008DF8E2
:100660008D003F4890F846008DF88E004C20022106
:10067000CDE90E11CDE91006382216A96846FFF71C
:10068000A3FD0DF1480C9CE80F0001F0F1FE3D22A6
:10069000314912A8FFF798FD20788DF88500607821
:1006A0008DF88600A0788DF88700E0788DF88800B6
:1006B00020798DF8890060798DF88A00A0798DF80D
:1006C0008B00E0798DF88C00207A8DF88D00607AAF
:1006D0008DF88E004E20CDF83890CDE90F7038227D
:1006E00016A968461197FFF76FFD12AF97E80F0044
:1006F00001F0BEFE3D221A4912A8FFF765FD184819
:1007000090F83D008DF88500154890F83E008DF872
:100710008600134890F83F008DF88700104890F845
:1007200040008DF888000E4890F841008DF889004F
:100730000B4890F842008DF88A00094890F8430071
:100740008DF88B00064890F844008DF88C00044822
:1007500090F8450006E0000044010020FC00002065
:10076000B40000208DF88D00FE4890F846008DF80A
:100770008E0002217420CDE90E16CDE91001382239
:1007800016A96846FFF720FD97E80F0001F070FEFC
:100790003D22F44912A8FFF717FD28788DF885004F
:1007A00068788DF88600A8788DF88700E8788DF84D
:1007B000880028798DF8890068798DF88A00A879F1
:1007C0008DF88B00E8798DF88C00287A8DF88D00F3
:1007D000687A8DF88E005620CDE910065F46CDF878
:1007E00038B0382216A9CDF83CB06846FFF7ECFCCB
:1007F0000DF1480B9BE80F0001F03AFE4FF49670A4
:1008000000F096FB3D22D74912A8FFF7DDFC2878BF
:100810008DF8850068788DF88600A8788DF88700B7
:10082000E8788DF8880028798DF8890068798DF846
:100830008A00A8798DF88B00E8798DF88C00287AE9
:100840008DF88D00687A8DF88E006A20CDE910074A
:10085000CDE90E76382216A96846FFF7B5FC9BE86D
:100860000F0001F005FE3D22BE4912A8FFF7ACFCC7
:1008700028788DF8850068788DF88600A8788DF83E
:100880008700E8788DF8880028798DF889006879E4
:100890008DF88A00A8798DF88B00E8798DF88C00A6
:1008A000287A8DF88D00687A8DF88E004C20CDE97D
:1008B00010060E97382216A90F976846FFF784FC9A
:1008C0009BE80F0001F0D4FD3D22A74912A8FFF7D5
:1008D0007BFC20788DF8850060788DF88600A07804
:1008E0008DF88700E0788DF8880020798DF88900F0
:1008F00060798DF88A00A0798DF88B00E0798DF809
:100900008C00207A8DF88D00607A8DF88E000FA90A
:100910004FF0010B36224846CDF8389081E80508A3
:10092000382216A96846FFF74FFC0DF1480C9CE8E9
:100930000F0001F09DFD3D228A4912A8FFF744FCFB
:1009400028788DF8850068788DF88600A8788DF86D
:100950008700E8788DF8880028798DF88900687913
:100960008DF88A00A8798DF88B00E8798DF88C00D5
:10097000287A8DF88D00687A8DF88E007420CDE984
:100980001007CDE90E76382216A96846FFF71CFC41
:100990000DF1480C9CE80F0001F06AFD3D22714901
:1009A00012A8FFF711FC28788DF8850068788DF87B
:1009B0008600A8788DF88700E8788DF88800287977
:1009C0008DF8890068798DF88A00A8798DF88B00F8
:1009D000E8798DF88C00287A8DF88D00687A8DF88A
:1009E0008E005620CDE910060E97382216A90F97D3
:1009F0006846FFF7E9FB12AD95E80F0001F038FDFE
:100A00003D225A4912A8FFF7DFFB584D15F83D0F5C
:100A10008DF8850068788DF88600A8788DF88700B5
:100A2000E8788DF8880028798DF8890068798DF844
:100A30008A00A8798DF88B00E8798DF88C00287AE7
:100A40008DF88D00687A8DF88E0070200E96CDE9B5
:100A50000F70382216A968461197FFF7B5FB0DF104
:100A6000480C9CE80F0001F003FD3D223F4912A80D
:100A7000FFF7AAFB28788DF8850068788DF8860046
:100A8000A8788DF88700E8788DF8880028798DF8A7
:100A9000890068798DF88A00A8798DF88B00E8794B
:100AA0008DF88C00287A8DF88D00687A8DF88E008C
:100AB00055200E96CDE90F60382216A9684611968A
:100AC000FFF782FB0DF1480C9CE80F0001F0D0FC11
:100AD0003D22254912A8FFF777FB20788DF8850085
:100AE00060788DF88600A0788DF88700E0788DF822
:100AF000880020798DF8890060798DF88A00A079C6
:100B00008DF88B00E0798DF88C00207A8DF88D00BF
:100B1000607A8DF88E000FA94F224846CDF83890A4
:100B200081E80508382216A968463D3CFFF74CFBD2
:100B30000DF1480B9BE80F0001F09AFC3D220B4998
:100B400012A8FFF741FB28788DF8850068788DF8AA
:100B50008600A8788DF88700E8788DF8880007E08F
:100B60005DE00000B400002044010020FC000020F3
:100B700028798DF8890068798DF88A00A8798DF830
:100B80008B00E8798DF88C00287A8DF88D00687AD2
:100B90008DF88E0075200E96CDE90F70382216A9BB
:100BA00068461197FFF710FB9BE80F0001F060FC0F
:100BB0003D221E4912A8FFF707FB28788DF8850013
:100BC00068788DF88600A8788DF88700E8788DF829
:100BD000880028798DF8890068798DF88A00A879CD
:100BE0008DF88B00E8798DF88C00287A8DF88D00CF
:100BF000687A8DF88E005A200E96CDE90F60382263
:100C000016A968461196FFF7DFFA9BE80F0001F07E
:100C10002FFC4FF4967000F08BF908F10108D045D5
:100C20007FF7A1AB25B0BDE8F08F0000FC000020ED
:100C300010B590F821100022022905D0042181630B
:100C400080F82020012010BD01680B6823F00E03FE
:100C50000B6001680B6823F001030B6090F84030D3
:100C6000C46B012101FA03F3636080F8211080F85E
:100C70002020104610BD000010B590F8211000246F
:100C8000022903D00421816301243DE001680A6840
:100C900022F00E020A6001680A6822F001020A606E
:100CA0001A4A0168914201D1012121E0174A143208
:100CB000914201D110211BE0144A2832914201D106
:100CC000891515E0114A3C32914201D189140FE097
:100CD0000E4A5032914202D14FF4803108E00B4A63
:100CE0006432914202D14FF4801101E04FF08071E3
:100CF000064A083A5160012180F82110002180F84D
:100D00002010416B01B18847204610BD0800024009
:100D10002DE9F05FC16B0C6801680B68D0F840C02A
:100D2000042202FA0CF2494DDFF824A1494E4A4F41
:100D3000DFF828B1DFF828E122422CD05A072AD563
:100D40000A68920603D40A6822F004020A60016865
:100D5000A94201D1042219E0514501D1402215E0F8
:100D6000B14202D14FF4806210E0B94202D14FF497
:100D700080420BE0594502D14FF4802206E07145D4
:100D800002D14FF4800201E04FF080622F49083910
:100D90004A60C16A3BE04FF0020808FA0CF818EA12
:100DA000040F4FF000094FF0010235D05FEA83785D
:100DB00032D50B689B0605D40B6823F00A030B6041
:100DC00080F821200168A94201D1022219E0514591
:100DD00001D1202215E0B14202D14FF4007210E09F
:100DE000B94202D14FF400520BE0594502D14FF401
:100DF000003206E0714502D14FF4001201E04FF0DD
:100E00000072124908394A6080F82090816A0029EE
:100E10001AD0BDE8F05F0847082505FA0CF5254211
:100E200012D01B0710D50B6823F00E030B6090F84F
:100E30004010C36B02FA01F15960826380F82120EF
:100E400080F82090016BE2E7BDE8F09F08000240C7
:100E50001C000240300002404400024058000240A2
:100E60006C00024030B528B308C813491422194455
:100E7000B1FBF2F18900C16310498163022141771E
:100E80001A6843F6F0718A43D0E900142143D0E98F
:100E900002452C4321430469214344692143846969
:100EA00021431143196000214163012242770177F8
:100EB000084630BD012030BDF8FFFDBF00000240F4
:100EC00070B5044690F82000002501280CD00120C0
:100ED00084F8200094F821600020012E06D084F8C8
:100EE00020000225284670BD022070BD022684F82D
:100EF0002160A0632068066826F00106066020468F
:100F0000FFF704FAE06A00282068016802D041F087
:100F10000E0106E021F0040101602068016841F043
:100F20000A0101602068016841F001010160D9E710
:100F300070B5044600F0FEF80546601C02D0044877
:100F40000078044400F0F6F8401BA042FAD370BDCC
:100F50005C0000202DE9F84FDFF8B8910024A9F1DA
:100F6000040B23460F2709F1040AABF1040EC9E074
:100F70000125A5402A40AA427DD1674ED1F804C080
:100F8000ACEB0608B44532D014DCBCF1030F3AD008
:100F900009DCBCF1000F2AD0BCF1010F1CD0BCF160
:100FA000020F31D11DE0BCF1110F17D0BCF1120FAF
:100FB0002AD119E0B8F5881F19D006DCB8F5803FB2
:100FC00015D0B8F5801F1FD111E0B8F5001F0ED065
:100FD000B8F5041F18D10AE0CB6815E0CB681B1DDB
:100FE00012E0CB6808330FE0CB680C330CE08B6861
:100FF0002BB1012B4FF0080303D0456104E004231B
:1010000002E0056100E00023FF2A01D8064601E066
:1010100000F104064FEA840501D9A5F12005D6F8B0
:10102000008007FA05FC28EA0C0803FA05F548EAEF
:101030000508C6F800804D68ED0062D5374DAE69F1
:1010400046F00106AE61AD6924F0030605F0010526
:101050000095334D06EB050CDCF80850A607360F5B
:1010600007FA06F825EA0805DFF8B880404503D1FD
:101070004FF0000817E044E0DFF8AC80404502D1B3
:101080004FF001080FE0DFF8A480404502D14FF097
:10109000020808E0DFF89880404502D14FF00308CD
:1010A00001E04FF0040808FA06F848EA0508CCF811
:1010B00008804D68D9F80060ED024D4601D5164311
:1010C00000E096432E604D68DAF80060AD025546A8
:1010D00001D5164300E096432E604D68DBF80060B2
:1010E000AD035D4601D5164300E096432E604D6882
:1010F000DEF80060ED03754601D5164300E0964327
:101100002E60641C0D682A46E5407FF431AFBDE8CF
:10111000F88F000008040140000011100010024088
:101120000000014000080140000C01400010014097
:101130000014014001488068704700005C000020F6
:101140000248816802781144816070475C00002089
:10115000074810B5016841F010010160032000F05C
:1011600075F80F2000F006F800F024F8002010BDFC
:101170000020024070B50D4D04464FF47A71287876
:10118000B1FBF0F00A490968B1FBF0F000F0DCFABD
:1011900048B9102C07D200222146501E00F036F824
:1011A00000206C6070BD012070BD00005C0000205C
:1011B000680000200C4808B5816941F00101816197
:1011C000816901F001010091C16941F08051C16163
:1011D000C06900F0805000900448416821F0E0614F
:1011E00041F00071416008BD001002400000014064
:1011F000002809DB00F01F02012191404009800016
:1012000000F1E020C0F8001170470000F0B40E4B70
:101210001B680C46C3F30223C3F10705042D00D954
:101220000425191D072901D2002300E0DB1E012639
:1012300006FA05F1491E214099409E40761E16404F
:101240003143F0BC01F027BD0CED00E0064900F091
:10125000070208684FF6FF03184040EA0220034ADD
:1012600010430860704700000CED00E00000FA0534
:101270002DE9F0470F46050061D0434E306800F07D
:101280000700B84209D2306820F0070038433060C8
:10129000306800F00700B84251D128683B4C810704
:1012A00012D5400703D5606840F4E060606028789C
:1012B000000703D5606840F4605060606068A9680A
:1012C00020F0F000084360602878C00728D06868E4
:1012D000012810D02168022810D0890700292EDAB1
:1012E000616821F0030101436160FFF723FF80463D
:1012F00041F288390DE021688903EFE78901EDE7C4
:10130000FFF718FFA0EB0801494502D90320BDE80B
:10131000F0876068696800F00C00B0EB810FEFD1D6
:10132000306800F00700B8420BD9306820F00700A1
:1013300038433060306800F00700B84201D0012027
:10134000E5E72878400705D56068E96820F4E060A3
:10135000084360602878000706D56068296920F492
:10136000605040EAC100606000F038F86168084AE7
:10137000C1F30311515CC840064908600648006883
:10138000FFF7F8FE0020C2E70020024000100240F4
:101390004A2E00086800002060000020044805492B
:1013A00000684968044AC1F30221515CC840704793
:1013B00068000020001002405A2E00080448054929
:1013C00000684968044AC1F3C221515CC8407047B3
:1013D00068000020001002405A2E00080E4A516892
:1013E0000E4801F00C03042B11D0082B0FD10C4830
:1013F000C1F38343C903C05C0AD55168084AC1F3ED
:101400004041921E515C054A5043B0FBF1F07047D9
:1014100004494843704700000010024000127A005F
:101420003A2E000800093D002DE9F84F040070D065
:101430002078C04DC00749D06868C0F381000128FA
:1014400007D06868C0F38100022809D16868C0032A
:1014500006D52868800339D560680028E7D035E0D4
:101460006068B0F5803F0BD010B1B0F5A02F11D05F
:10147000286820F480302860286820F4802002E06A
:10148000286840F480302860606890B1FFF752FE11
:1014900006460AE0286840F480202860F0E700BF94
:1014A000FFF748FE801B642873D828688003F7D5AF
:1014B0000CE0FFF73FFE064605E000BFFFF73AFEEF
:1014C000801B6428F0D828688003F7D420789A4ECF
:1014D00080074FF001094FF0000839D5686810F017
:1014E0000C0F07D06868C0F38100022809D1686832
:1014F000C00306D42868800714D52069012808D1C4
:1015000010E02069B0B1C6F80090FFF713FE07465F
:1015100005E00AE1FFF70EFEC01B0228C4D82868C8
:101520008007F7D52868616920F0F80040EAC1001B
:1015300028600DE0C6F80080FFF7FCFD074604E0D8
:10154000FFF7F8FDC01B022823D828688007F7D4CE
:10155000207800072CD57948A169D9B1C0F800904E
:10156000FFF7E8FD074604E0FFF7E4FDC01B022893
:101570000FD8686A8007F7D571484FF4FA510068B0
:10158000B0FBF1F0009000BF0098411E0091FAD22C
:101590000EE080E0C0F80080FFF7CCFD074604E0D5
:1015A000FFF7C8FDC01B022875D8686A8007F7D40A
:1015B0002078400760D5E8690027C00008D4E869B2
:1015C00040F08050E861E869012700F08050009009
:1015D0005C480168C90513D40168834641F48071F1
:1015E0000160FFF7A7FD824606E000BFFFF7A2FDFE
:1015F000A0EB0A0064284ED8DBF80000C005F5D542
:10160000E06801280AD008B1052813D0286A20F024
:1016100001002862286A20F0040002E0286A40F0F5
:1016200001002862E06841F2883B98B1FFF782FD33
:1016300082460BE0286A40F004002862EEE700BF13
:10164000FFF778FDA0EB0A0159455AD8286A8007B0
:10165000F6D50CE0FFF76EFD824605E0FFF76AFD68
:10166000A0EB0A0159454CD8286A8007F6D41FB16F
:10167000E86920F08050E861E06988B36968C1F3E7
:101680008101022944D00228C6F8608004D0FFF707
:1016900051FD044638E034E0FFF74CFD074604E016
:1016A000FFF748FDC01B02282BD828688001F7D41B
:1016B000206AB0F5803F05D16868A16820F4003049
:1016C00008436860D4E908010843696821F474118B
:1016D00008436860C6F86090FFF72CFD044606E0FA
:1016E00025E000BFFFF726FD001B022809D8286867
:1016F0008001F7D51BE000BFFFF71CFD001B02288F
:1017000002D90320BDE8F88F28688001F4D40EE0E8
:101710000128F7D06868226A00F48031914204D130
:10172000616A00F47010884201D00120EAE70020CD
:10173000E8E70000001002400000424280044242FC
:10174000680000200070004010B5401EB0F1807F9E
:1017500001D3012010BD4FF0E02460610F2160171C
:1017600001F099FA0020A06107202061002010BD3F
:1017700010B590F83C20012A22D0012280F83C20AC
:10178000CA688C6822F4407222434C6822F480625A
:1017900022430C6822F4006222430C6922F4805236
:1017A00022434C6922F400522243C969002322F4E7
:1017B00080420A4301684A6480F83C30002010BD32
:1017C000022010BD70B590F83C20012A26D00124DB
:1017D00080F83C40022280F83D2003685A689D68EA
:1017E00022F070060A6832435A600D4B02689A4232
:1017F00008D0B2F1804F05D00A4B9A4202D00A4B72
:101800009A4204D1496825F080031943916080F819
:101810003D40002180F83C10084670BD022070BD9C
:10182000002C0140000400400008004010B50400F6
:1018300003D094F83D0010B107E0012010BD002056
:1018400084F83C00204600F01FF8022084F83D0098
:10185000211D206800F044FF012084F8460084F830
:101860003E0084F83F0084F8400084F8410084F88A
:10187000420084F8430084F8440084F8450084F86A
:101880003D00002010BD000008B5174A0168174848
:10189000914207D1816941F400618161806900F45E
:1018A000006014E0B1F1804F0AD0114A914210D18A
:1018B000C16941F00201C161C06900F0020006E0A7
:1018C000C16941F00101C161C06900F001000090EF
:1018D00008BD084A9142FBD1C16941F00401C161D0
:1018E000C06900F00400F2E7002C01400010024043
:1018F000000400400008004070B5044690F83C0029
:101900000025012817D0012684F83C60022084F8C5
:101910003D002068826822F0770222F47F428260D4
:101920000868502838D00DDC20284FD005DC90B353
:10193000102811D14AE0022070BD302846D040283E
:101940000AD13BE060282FD070280DD0B0F5805F21
:1019500003D0B0F5005F12D0012584F83D6000206F
:1019600084F83C00284670BDCB68D1E9012120688D
:1019700000F0F9FE2068816841F0770109E0CB684A
:10198000D1E90121206800F0EEFE2068816841F471
:1019900080418160E1E719E0CA684968206800F089
:1019A00097FF5021206806E0CA684968206800F067
:1019B000A0FF6021206800F0E0FECEE7CA68496819
:1019C000206800F085FF40212068F4E72268014686
:1019D0001046F0E730B585B00021009101910291E9
:1019E000039100682B4B2C4902242C4A984209D1C0
:1019F000886940F004008861886900F00400049060
:101A0000881529E0B0F1804F1DD0254B254D984217
:101A10002CD1886940F004008861886900F00400D6
:101A20000490886940F0080088618869694600F080
:101A300008000490C020CDE9000410460394FFF78D
:101A400089FA03201FE0886940F0040088618869F2
:101A500000F0040004900E20CDE900046946104611
:101A6000CDF80C40FFF776FA05B030BD0E4A904233
:101A7000FAD1886940F008008861886900F00800A0
:101A800004904FF47070CDE9000469462846039431
:101A9000E8E70000002C014000100240000801406F
:101AA00000040040000C01400008004070B50446EE
:101AB00090F83C0000260D4601280FD0012084F844
:101AC0003C006AB1042A1DD0082A2FD00C2A3FD02E
:101AD0000126002084F83C00304670BD022070BD15
:101AE000206800F053FE2068816941F0080181619F
:101AF0002068816921F004018161206881692A6977
:101B0000114311E0206800F069FE2068816941F40A
:101B1000006181612068816921F4806181612068B0
:101B200081692A6941EA02218161D2E7206800F0D7
:101B300081FE2068C16941F00801C1612068C16966
:101B400021F00401C1612068C1692A69114311E0D3
:101B5000206800F09BFE2068C16941F40061C1610A
:101B60002068C16921F48061C1612068C1692A6966
:101B700041EA0221C161ACE710B5040003D094F83A
:101B80003D0010B107E0012010BD002084F83C00AA
:101B9000204600F01EF8022084F83D00211D206838
:101BA00000F09EFD012084F8460084F83E0084F891
:101BB0003F0084F8400084F8410084F8420084F833
:101BC000430084F8440084F8450084F83D00002078
:101BD00010BD704710B50446022249B104290ED049
:101BE000082913D094F84100012816D0012010BD17
:101BF00094F83E000128F9D184F83E200FE094F8D3
:101C00003F000128F2D184F83F2008E094F840001A
:101C10000128EBD184F8402001E084F84120012222
:101C2000206800F093FD0F492068884203D1426C80
:101C300042F4004242642068884208D0B0F1804FEC
:101C400005D00949884202D00849884204D18168F8
:101C500001F00701062903D0016841F0010101608C
:101C6000002010BD002C014000040040000800408E
:101C700070477047F8B5016804460868CA684B6940
:101C800010F00F0F4FF0000559D003F0010602F4D9
:101C90009077374365D0C10705D0D10503D5616C76
:101CA00041F001016164410705D5D90703D0616C9A
:101CB00041F002016164810705D5D90703D0616C49
:101CC00041F004016164010707D502F020013143AE
:101CD00003D0616C41F008016164616C00293AD065
:101CE000800604D5900602D5204600F0C8FE206884
:101CF0004069616CC0F38010090700D460B32046CE
:101D000000F088FE20684069400621D52068143024
:101D100050E8001F21F0400140E80012002AF5D1F0
:101D2000E06BA8B16D494163E06BFEF7A5FF0028A9
:101D300011D0E06B416B01B0BDE8F040084783066D
:101D40000FD593060DD52046BDE8F84000F097BEAC
:101D50002046FFF78EFFF8BD2046FFF78AFF656437
:101D6000F8BD266B2023012E7CD1C6067AD5D60677
:101D700078D508684868009048694FF00206400628
:101D800040D5E16B086840680004000CE8D0A28DE3
:101D90008242E5D9E085886920282DD020680C3062
:101DA00050E8001F21F4807140E80012002AF5D1AC
:101DB0002068143050E8001F21F0010140E80012B3
:101DC000002AF5D12068143050E8001F21F04001AE
:101DD00040E80012002AF5D184F8423025632068DB
:101DE0000C3050E8001F21F0100140E80012002ADA
:101DF000F5D1E06BFEF71CFF6663A08DE18D401A04
:101E000081B22AE0A08DE18D401A81B2E08D0028D8
:101E1000A6D00029A4D022680C3252E8000F20F48A
:101E2000907042E80007002FF5D12068143050E888
:101E3000002F22F0010240E80027002FF5D184F89E
:101E40004230256320680C3050E8002F22F0100249
:101E500040E80023002BF5D166632046FFF708FF1A
:101E6000F8BDFFE705062BD5150629D594F84100E6
:101E70002128F5D1A068B0F5805F01D12069B0B10B
:101E8000206A411C2162216800784860E08C401E75
:101E90000004000CE084E3D12068C16821F08001D7
:101EA000C1602068C16841F04001C160D8E7206A84
:101EB0000088C0F308004860206A801C2062E5E7C3
:101EC0004006CDD55006CBD5CA68204622F0400248
:101ED000CA6084F8413000F0BEF8C1E71729000855
:101EE00070B5040004D094F84100002510B106E05C
:101EF000012070BD84F84050204600F023F82420D3
:101F000084F841002068C16821F40051C160204676
:101F100000F016FE2068016921F4904101612068FB
:101F2000416921F02A0141612068C16841F40051F2
:101F3000C1606564202084F8410084F84200656334
:101F4000002070BD2DE9F04186B0002406460094C3
:101F500001940294039400682E49884256D12E4879
:101F6000816941F480418161816901F4804104917A
:101F7000816941F0040181618069284D00F004000D
:101F800004904FF400700090022001900320039011
:101F900069462846FEF7DEFF2815CDE900046946AC
:101FA00028460294FEF7D6FF1E4D1D488027C5E93E
:101FB0000004C5E902474FF020082C61C5E9054837
:101FC0002846EC61FEF74EFF08B1FEF7B5F9F56360
:101FD0006E62144D12484435143801C5102091C565
:101FE000104845F810494430C5E90548EC61FEF752
:101FF00039FF08B1FEF7A0F9B5630022114625208C
:102000006E62FFF703F92520FFF7F2F806B0BDE88E
:10201000F08100000038014000100240000801403B
:1020200058000240D401002090F84230202B01D00B
:102030000220704721B11AB10023036300F0DCBD18
:10204000012070470249884201D100F035BE704737
:102050008C01002070477047FEE708B54FF4FA6026
:10206000FEF766FF012000904E234D224B214F20AA
:1020700000F08AFA02207D23009075227421184610
:1020800000F082FA0320009055235A2256215E2048
:1020900000F07AFABDE808404FF47A70FEF748BFC6
:1020A0000D4808B5416941F00101416140690022D4
:1020B00000F00100009011460E20FFF7A7F80E2057
:1020C000FFF796F8002211460F20FFF79FF8BDE8B2
:1020D00008400F20FFF78CB8001002400D4808B5EB
:1020E000816941F020018161816901F02001009145
:1020F000816941F004018161816901F0040100916D
:10210000816941F008018161806900F00800009058
:1021100008BD00000010024010B596B000240F94D6
:1021200010941194129413941C2108A81494FEF78F
:102130007DF820216846FEF779F829482749016093
:1021400040F2CF21C0E9011440F2E731C0E90314A5
:1021500044618461FFF76AFB08B1FEF7EDF84FF4C4
:1021600080500F900FA91E48FFF7C6FB08B1FEF77D
:10217000E3F81B48FFF700FD08B1FEF7DDF8139404
:1021800013A917481494FFF71DFB08B1FEF7D4F804
:102190006020CDE908040A940B940C940D9400225D
:1021A00008A90F480E94FFF781FC08B1FEF7C4F8A8
:1021B00000944FF40050CDE904400294019403943C
:1021C000694607480794FFF7D3FA08B1FEF7B4F859
:1021D0000348FFF7FFFB16B010BD0000002C0140C4
:1021E0006C00002010B58EB0002407940894099468
:1021F0000A940B941C2168460C94FEF717F82648A5
:102200004FF08041016040F2CF21C0E9011440F25B
:10221000E731C0E903148461FFF708FB08B1FEF75A
:102220008BF84FF48050079007A91B48FFF764FB19
:1022300008B1FEF781F81848FFF79EFC08B1FEF7D9
:102240007BF80B940BA914480C94FFF7BBFA08B168
:10225000FEF772F86020CDE900040294042269467A
:102260000D480494FFF722FC08B1FEF765F8082238
:1022700069460948FFF71AFC08B1FEF75DF80C2221
:1022800069460548FFF712FC08B1FEF755F8024809
:10229000FFF7A0FB0EB010BDB400002010B58EB04B
:1022A00000240794089409940A940B941C2168460E
:1022B0000C94FDF7BBFF2B482949016040F2CF2168
:1022C000C0E9011440F2E731C0E903148461FFF76B
:1022D000ADFA08B1FEF730F84FF48050079007A927
:1022E0002048FFF709FB08B1FEF726F81D48FFF765
:1022F00043FC08B1FEF720F80B940BA919480C9485
:10230000FFF760FA08B1FEF717F86020CDE9000486
:1023100002940022694613480494FFF7C7FB08B1F2
:10232000FEF70AF8042269460E48FFF7BFFB08B122
:10233000FEF702F8082269460A48FFF7B7FB08B122
:10234000FDF7FAFF0C2269460648FFF7AFFB08B11C
:10235000FDF7F2FF0348FFF73DFB0EB010BD000094
:1023600000040040FC00002010B58EB0002407944B
:10237000089409940A940B941C2168460C94FDF768
:1023800055FF2B482949016040F2CF21C0E90114D3
:1023900040F2E731C0E903148461FFF747FA08B15E
:1023A000FDF7CAFF4FF48050079007A92048FFF7B8
:1023B000A3FA08B1FDF7C0FF1D48FFF7DDFB08B128
:1023C000FDF7BAFF0B940BA919480C94FFF7FAF923
:1023D00008B1FDF7B1FF6020CDE9000402940022AE
:1023E000694613480494FFF761FB08B1FDF7A4FFA9
:1023F000042269460E48FFF759FB08B1FDF79CFF20
:10240000082269460A48FFF751FB08B1FDF794FF1F
:102410000C2269460648FFF749FB08B1FDF78CFF1F
:102420000348FFF7D7FA0EB010BD000000080040C7
:10243000440100200C4810B50A4901604FF4E13115
:102440004160002181600C22C160C0E904128161F9
:10245000C161FFF745FD002803D0BDE81040FDF73E
:102460006BBF10BD003801408C010020FEE700006A
:102470000FB4444A2DE9F041DDE91A50DDE918872F
:1024800000EB800002EB8006B8F1030F03D0B8F137
:10249000040F03D004E0032F0FD001E0042F0CD071
:1024A00056F82840AC422EDC012F0ED0022F15D05A
:1024B000032F1CD0042F52D122E07468F2E7069853
:1024C00044630A20FEF734FD641CAC42F7DD46E0AD
:1024D000069884630A20FEF72BFD641CAC42F7DDEE
:1024E0003DE00698C4630A20FEF722FD641CAC425E
:1024F000F7DD34E0069804640A20FEF719FD641C39
:10250000AC42F7DD2BE0012F0CD0022F13D0032FAC
:102510001AD0042F23D120E0069844630A20FEF746
:1025200007FD641EAC42F7DA19E0069884630A20BE
:10253000FEF7FEFC641EAC42F7DA10E00698C463B6
:102540000A20FEF7F5FC641EAC42F7DA07E00698B5
:1025500004640A20FEF7ECFC641EAC42F7DAB8F122
:10256000030F03D0B8F1040F07D008E0032F06D102
:102570007560BDE8F0015DF814FB042FF8D046F853
:102580002850F6E70C0000202DE9F05F1E461746A4
:10259000884681460A9CFDF7D1FE054633483449FA
:1025A000344A012C07D0022C25D0032C21D12D2414
:1025B0008B46924656E032248A46934617E0A7425D
:1025C00002DB2A4800684463A14502DBDAF8000018
:1025D0000464A64202DBDAF800004463A04502DB93
:1025E000DBF8000004640A20FEF7A2FC641CAC4285
:1025F000E5DDBDE8F09F46248246934617E0A742FA
:1026000002DBDAF800008463A14502DBDAF800009F
:102610000464A64202DB164800688463A04502DB1E
:10262000DBF80000C4630A20FEF782FC641CAC42A5
:10263000E5DDDEE7A74202DB0C480068C463A14584
:1026400002DB0D4800684463A64202DBDBF80000B1
:10265000C463A04502DBDAF8000084630A20FEF7B9
:1026600067FC641CAC42E5DDC3E70000FC00002011
:1026700044010020B40000206C000020FEE77047F9
:102680007047FEF75DBD30B58FB028216846FDF775
:10269000CDFD14210AA8FDF7C9FD022501200490F3
:1026A00000951020059000244FF4E010CDE908407B
:1026B00007956846FEF7B8FE08B172B6FEE70F2030
:1026C0000A90CDE90B540D9401210AA80E94FEF74F
:1026D000CFFD002801D072B6FEE70FB030BD7047C5
:1026E000F0B50268164B174C174D4FF080479842D3
:1026F00005D0B84203D0A04201D0A84203D122F0B5
:1027000070064A683243984205D0B84203D0A042CE
:1027100001D0A84203D122F44074CA6822434C6914
:1027200022F08002224302608A68C2620A688262E2
:10273000984201D10969016301214161F0BD0000A6
:10274000002C0140000400400008004010B501F0DA
:102750001F030121046A99408C430462016A9A4074
:102760001143016210BD10B5846842EA032224F4CB
:102770007F440A432243826010BD826822F07002C7
:102780000A4342F0070181607047000030B5036AD8
:10279000026A22F0010202624268846924F0730531
:1027A0000C682C4323F002058B682B430A4DA8428A
:1027B0000BD123F00805CB6822F440722B434D69FE
:1027C00023F0040315438A692A43426084614968FF
:1027D0004163036230BD0000002C014030B5026A45
:1027E000036A23F010030362436884690D6824F4CC
:1027F000E64444EA05248D6822F0200242EA0512EC
:102800000B4DA8420ED1CD6822F0800242EA05129B
:102810004D6923F4406343EA85038D6922F0400249
:1028200043EA85034360846149688163026230BD85
:10283000002C014030B5036A026A22F48072026201
:102840004268C46923F4007324F073050C682C43B8
:102850008D6843EA05230C4DA8420ED1CD6823F4C0
:10286000006343EA05234D6922F4405242EA05120F
:102870008D6923F4806342EA05124260C4614968AD
:10288000C163036230BD0000002C014030B5046A12
:10289000026A22F4805202624268C3690D6823F41E
:1028A000E64343EA05238D6824F4005444EA0534E2
:1028B000064DA84204D14D6922F4804242EA8512B5
:1028C0004260C36149680164046230BD002C01406C
:1028D00010B5036A046A24F001040462846924F0D8
:1028E000F00444EA021423F00A020A4384610262FB
:1028F00010BD10B5036A046A24F0100404628469F0
:1029000023F0A00324F4704444EA023243EA0111A4
:102910008261016210BD10B5406A0021C185C18489
:10292000FFF7A7F910BD70B5446A2068406994F8B4
:102930004110C0F3C0100025212904D118B1E5844D
:10294000204600F08EF82068406994F84210C0F3E9
:102950008010222904D118B1E585204600F05AF8EC
:10296000606C40F0100060642046FFF782F970BD93
:1029700010B50146406A096809684FF000028906EF
:102980002ED4C28501680C3151E8003F23F48073D6
:1029900041E80034002CF5D10168143151E8003FC2
:1029A00023F0010341E80034002CF5D10168143113
:1029B00051E8003F23F0400341E80034002CF5D1FA
:1029C000202180F84210016B012909D101680C31E6
:1029D00051E8003F23F0100341E80034002CF5D10A
:1029E0004263016B012902D0FFF72CFB10BD818DE2
:1029F000FFF73EF910BD10B5406A01214163016B3C
:102A0000012902D0FFF726FB10BD818D4908FFF791
:102A10002FF910BD01680C3151E8002F22F490729B
:102A200041E80023002BF5D10168143151E8002F53
:102A300022F0010241E80023002BF5D1016B0129AE
:102A400009D101680C3151E8002F22F0100241E851
:102A50000023002BF5D1202180F8421000210163D2
:102A6000704701680C3151E8002F22F0C00241E8A4
:102A70000023002BF5D1202180F84110704708B5C4
:102A800090F84210222901D0022008BD82684FF43C
:102A900080539A4201D1016921B1816A9A421BD0C7
:102AA0004AB10AE00268816A5268C2F308020A80E9
:102AB000816A891C08E0026972B10268526802F0FA
:102AC0007F020A70816A491C8162C18D491E090416
:102AD000090CC18503D01BE002685268F1E7016868
:102AE000CA6822F02002CA600168CA6822F48072B3
:102AF000CA6001684A6922F001024A61202180F817
:102B0000421000214163026B012A03D0FFF79AFAB9
:102B1000002008BD016301680C3151E8002F22F04C
:102B2000100241E80023002BF5D101680A68D206A3
:102B300002D50A6849680091818DFFF799F8E7E7A7
:102B400070B5044600680169E26821F44051114300
:102B500001612169A0680843616908432168CA6866
:102B600041F20C639A430243CA6020684169A2693A
:102B700021F44071114341611E492068884202D10D
:102B8000FEF71CFC01E0FEF709FC00EBC00101EBC5
:102B90000012606864218000B2FBF0F3B3FBF1F334
:102BA0006FF018067343B2FBF0F5B2FBF0F605EBDD
:102BB0008305322303EB0515B5FBF1F5B6FBF1F602
:102BC00005F0F00505EB0615B2FBF0F6B2FBF0F0F0
:102BD000B0FBF1F06FF01802504306EB800003EBFE
:102BE0000010B0FBF1F0216800F00F00284488606D
:102BF00070BD00000038014038B58162044682850E
:102C0000002013466064222284F84220E56B1B4AB0
:102C1000AA62E56B1A4AEA62E56B1A4A2A63E26B1A
:102C200050630A462168E06B091DFEF749F92068E8
:102C3000016840680090206948B120680C3050E875
:102C4000001F41F4807140E80012002AF5D120688D
:102C5000143050E8001F41F0010140E80012002A42
:102C6000F5D12068143050E8001F41F0400140E8E1
:102C70000012002AF5D1002038BD0000712900089B
:102C8000F7290008272900080148FEF7F3BF0000D4
:102C90008C010020FEE70907090E002804DB00F183
:102CA000E02080F80014704700F00F0000F1E020F1
:102CB00080F8141D7047000030B52B482B4D047868
:102CC00043788278C1780838422C27D04E2C25D002
:102CD000502C23D0592C21D0422B29D04E2B27D039
:102CE000502B25D0592B23D0422A2FD04E2A2DD01D
:102CF000502A2BD0592A29D0422905D04E2903D059
:102D0000502901D0592920D1017003EB830102EB36
:102D1000410104EBC40202EB041212E002EB820256
:102D200001EB420103EBC302047002EB031208E063
:102D3000037001EB810102EBC20304EB410103EBE1
:102D4000021205EB82021144416030BD027004EBB7
:102D5000840203EB420201EBC10303EB011105EB1B
:102D600081011144F0E700000800002030EBFFFF74
:102D7000FEF7EEF9FFF787FCFFF7B0F9FFF790F9E0
:102D8000FFF758FBFFF7C8F9FFF72CFAFFF786FAB1
:102D9000FFF7EAFA00212248FEF71CFF0C21214828
:102DA000FEF718FF0C212048FEF714FF04211F48EE
:102DB000FEF710FF08211D48FEF70CFF0C211B48F1
:102DC000FEF708FF00211748FEF704FF042115480D
:102DD000FEF700FF08211348FEF7FCFE0021124811
:102DE000FEF7F8FE04211048FEF7F4FE08210E4815
:102DF000FEF7F0FE04220E490E48FFF715F9FFF723
:102E00002CF90B4C083C20784228FCD160686928DA
:102E100001DA012000E01420FDF79AFAF3E7000040
:102E20006C000020FC00002044010020B4000020C1
:102E3000080000208C01002001020203040506079F
:102E400008090A0B0C0D0E0F101000000000000006
:102E50000000010203040607080900000000010247
:102E600003040000842E0008000000206C00000015
:102E700028010008F02E00086C0000205408000013
:102E800044010008000000000000000000000000F5
:102E90000000000000000000000000000000000032
:102EA00000000000000000004F0000004B00000088
:102EB0004D0000004E000000000000007D000000FA
:102EC00074000000750000007D000000000000009C
:102ED0005E000000560000005A000000550000008F
:102EE0000100000010000000000000000024F400B9
:04000005080000ED02
:00000001FF
